:040000008031E9283A
:100008007E14803120007F082200EB0023005B086B
:100018002200E60023005A082200E500E636E50C37
:10002800E509E609E50A0319E60A9E31BB2680318F
:10003800220065087007E7006608713DE8002300A4
:100048006C0822006707E90023006D082200683D5C
:10005800EA00EA36E90C69082300EC0022006A0885
:100068002300ED00823022009700033090318E206B
:10007800803124004B080319582845082200E50060
:10008800E601E51BE603E535E60DE535E60D23005B
:100098005A0822006507E70023005B082200663D36
:1000A800E800E836E70C6A2845082200E500E60182
:1000B800E51BE603E535E60D23005A08220065072F
:1000C800E70023005B082200663DE800E836E70CFD
:1000D800E836E70C6708E90069082400C500230032
:1000E8006D0824002E02031D7D2823006C082400BF
:1000F8002D02031C832802304C06031D872800307C
:10010800F000F100BE2824004D0845072200EC004D
:10011800ED010318ED0A2400C51F94282200ED0301
:10012800003022006D02BD3003196C02031CA028A8
:10013800BC30EC000030ED00230060082200E50030
:10014800E6016D086602031DAB286C0865020318FA
:10015800B928230060082200E500E6016508EC00E4
:100168006608ED002400CC01CC0A22006D08F100DD
:100178006C08F0009F31592780319E319E268031CE
:100188008831912080319E31CD268031003A031983
:10019800C7289E31BB26803171082300DB00700818
:1001A800DA00833022009700063090318E208031AB
:1001B8008531472580319E319E262000111322006B
:1001C8006B082000FF007E1009008031EB28240016
:1001D8009E31B2268031EA009E31B3268031EB0091
:1001E8009E31B4268031EC009E31B5268031ED0079
:1001F8002200EE01EF01CB3084000130850025306C
:100208009E31C726803120308400023085004A3074
:100218009E31C7268031A0308400023085004B30E3
:100228009E31C7268031203084000330850040305D
:100238009E31C7268031A0308400033085004030CD
:100248009E31C7268031203084000430850040303C
:100258009E31C7268031A0308400043085004030AC
:100268009E31C7268031203084000530850040301B
:100278009E31C7268031A03084000530850040308B
:100288009E31C7267E1020009031D22820302300CE
:100298006B02031C08003D008E1808002300650847
:1002A800031DE92A4030C6004608AB0020309431CF
:1002B8004B2481312300C7004708C80048080319A8
:1002C800232AC901480849020318E92A4908203E97
:1002D8008600053087000108C6005E08203E8600BB
:1002E80003308700460881005E08203E8600033000
:1002F80087000A30010603198A295E08203E860015
:10030800033087000D300106031D042A55302600EE
:1003180020060319932975302006031DA5292130CD
:1003280097318F278131230026082400E400230019
:1003380027082400E500890D893B8909E600E700C4
:10034800BF294930260020060319AE296930200646
:10035800031DD529213097318F27813123002608A5
:100368002400EA00230027082400EB00890D893BBC
:100378008909EC00ED006A302300C6004608C00079
:1003880064308231EC2281312400670866046504F8
:1003980064040319D22922000E14F32922000E1036
:1003A800F329A0308600043087005F30840099303C
:1003B80085000D302300C60046080319E7291200FE
:1003C8001E00C60BE329A0302300A0000430A100C2
:1003D8000C30C6004608A2009F31862781312300D1
:1003E800DE012030A0000330A1000030A200A300ED
:1003F8004030A4000030A5009F31E7278131E92A69
:1004080001302300C6004608DE0741305E02031CA7
:100418001D2ADE012030A0000330A1000030A20018
:10042800A3004030A4000030A5009F31E7278131A8
:10043800E92A01302300C6004608C90766292000BA
:100448001118DA2AE92A00302300AF000030AE0084
:100458000030AD006430AC006C08A0006D08A1004D
:10046800A201A3010030A7000030A6000630A500B5
:10047800E130A4009131A121813123002308B30088
:100488002208B2002108B1002008B0009331F823F7
:10049800813123002D082400AC0023002C082400FF
:1004A800AB0023005B08A1005A08A0000A30A20094
:1004B8000030A30088310220813123002108240064
:1004C800AA00230020082400A900932A2700A001DD
:1004D800A030860003308700F6308400983085000D
:1004E80026302300C60046080319932A12001E006E
:1004F800C60B7A2A932A2C082300A70024002B086D
:100508002300A600B130902A2A082300A70024005F
:1005180029082300A600BF308C3121248131013005
:100528002300C60046082400C707E92A67086604AE
:1005380065046404031DA42A22000E105F30B72A44
:1005480022000E14C62A031022000E1C0314031CDA
:10055800B02A22000E14B22A22000E105E30B72AEA
:1005680022000E1021302300C60046082700B800DC
:10057800C62A24004C08003A03199A2A013A03199A
:10058800A72AB42AA0302300A0000330A1002630F7
:10059800C6004608A2009F3186278131200011102D
:1005A8009E31E62681312400C701E92A2400470844
:1005B800003A0319272A013A03196A2A033A031948
:1005C8007F2A013A0319882ABD2A8E319526080008
:1005D8002300C5004508860002308700433F891B79
:1005E800112B433F031D052B423F031D052B403FA5
:1005F800C10099304102413FC1003A30413B031CE0
:10060800112B45088600023087009830C03F3A30E9
:10061800C13F0030C23F0030C33F4508860002306A
:100628008700403FC100413FC200423FC300433FF3
:10063800C400C41F282B45088600023087000030FC
:10064800C03FC13FC23FC33F400886000230870019
:10065800433F891B4B2B433F031D3F2B423F031D49
:100668003F2B403FC100E9304102413FC100033008
:10067800413B031C4B2B4008860002308700E830C2
:10068800C03F0330C13F0030C23F0030C33F400885
:10069800860002308700403FC100413FC200423F10
:1006A800C300433FC400C41F622B400886000230C9
:1006B80087000030C03FC13FC23FC33F45088600A6
:1006C80002308700403FA000413FA100423FA20006
:1006D800433FA3004008860002308700403FA40043
:1006E800413FA500423FA600433FA7009131A12109
:1006F800823123002308031D892B013020029F30FB
:10070800213B2430223B031CAD2B450886000230D8
:100718008700403FAC00413FAD00423FAE00433F41
:10072800AF000030B3002430B2009F30B100003079
:10073800B0009331F823823123004008860002304C
:1007480087002C08C03F2D08C13F2E08C23F2F0844
:10075800C33F0B134508860002308700403FBB00AB
:10076800413FBC00423FBD00433FBE008F31482798
:10077800823100302300AF000030AE000030AD0001
:100788000A30AC004008860002308700403FB000C5
:10079800413FB100423FB200433FB3008A310922D2
:1007A800823123002C08033E2400AF0000302300D0
:1007B8002D3D2400B00000302300AF000030AE0013
:1007C8000630AD00E130AC004508860002308700F5
:1007D800403FC100413FC200423FC300433FC40005
:1007E80032304107A0000030423DA1000030433DB7
:1007F800A2000030443DA3000030A7000030A6004E
:100808000030A5006430A4009131A1218231230079
:100818002308B3002208B2002108B1002008B00064
:100828008A31092223002D082400AE0023002C0859
:100838002400AD000B17CC01080021002203031D82
:10084800372C20081F39003A031D372C2300D717EF
:10085800033021002106031D352C2400DB01DB0AAF
:10086800372C2400DB0121002208031D0800200882
:100878001F39023A031D080024080F39003A0319EA
:10088800080024080F39E60005306602031808003E
:10089800203023006B06031D0800D7172100A41B76
:1008A800642C24080F390907AA3E86000230870005
:1008B800403FEB00413FEC0024080F39B43E722C56
:1008C80024080F390907CB3E860001308700403FD6
:1008D800EB00413FEC0024080F39B93E8600023096
:1008E80087000108E6006608EA006A18852CFB30D4
:1008F800E600FF30E7006B086605EB006C0867054B
:100908008A2C04306B04EB0000306C04EC00A41B50
:10091800992C24080F390907AA3E8600023087005F
:100928006B08C03F6C08C13FA42C24080F39090785
:10093800CB3E8600013087006B08C03F6C08C13F82
:1009480003302106031DC62C6B0886006C0887003F
:10095800811FBB2CA41BB42C24080F39B43EB72C20
:1009680024080F39B93E86000230870081146B08CD
:1009780086006C08870001156B0886006C088700E4
:100988008117080004306B06EB0000306C06EC00A1
:100998006B0886006C088700811FEF2C7F30E6000B
:1009A8006B0886006C088700660881056B0886005E
:1009B8006C08870001170030E1000530E0006C0882
:1009C800E3006B08E2000230E4000030E5009231F9
:1009D80008228431F52C21006B0886006C088700FA
:1009E8000117043021006B06EB0000306C06EC00A8
:1009F800EA18042D6B0886006C088700811F292DD2
:100A0800A41B0A2D24080F39B43E0D2D24080F39D4
:100A1800B93E86000230870081103B30E6006B0843
:100A280086006C088700660881050030E100053003
:100A3800E0006C08E3006B08E2000230E4000030DC
:100A4800E500923108228431322D3B302100E60046
:100A58006B0886006C088700660881052100240859
:100A68000F39983EE600E7010E30E73D6608E800DA
:100A78006708E900FE30E600680886006908870014
:100A880066088105080023006B08031D5B2D3D00E7
:100A98008E019201163091009F3097007B309200B2
:100AA8008E19582D8E15542D2300EB01EB0A6B037C
:100AB800031D6B2D3D008E1A6B2D900192011214AF
:100AC800121602302200E30063082300EB003D0009
:100AD8001019121D782DFB302200E30063083D0039
:100AE80090059131112185313D008E1C7E2D20000D
:100AF800121108001018121C902D8D31E525853132
:100B080004302200E30063082300EB00FE302200DB
:100B1800E30063083D009005101A121E962D9031CF
:100B2800B62085313D00101FC02D121FAB2D73302C
:100B38002100E0000030E1000030E2000030E30076
:100B48000130E4000030E500923108228531BF30E1
:100B58002200E30063083D0090059F31B5278531E9
:100B6800240057080319BA2D0130D7025708031D6E
:100B7800C02D9731212785313D00901A921EC72D2F
:100B88009131552185313D009018921CDD2DFF30A3
:100B98002100E0007F30E1000030E2000030E30097
:100BA8000130E4000030E5009231082285313D0033
:100BB8009301043023006B020318E52D2000121165
:100BC80008003D00921D402E2100EF0104306F0205
:100BD8000318402E3D00901D402E0F082200E30010
:100BE80063082300EE006E0C2200E300E30C630CA4
:100BF8000F39E40064082400D900F7302200E3002C
:100C080063083D00900523006E190E2E2400590834
:100C1800B43E112E24005908B93E860002308700E0
:100C2800010801392200E3000130E30601086306E8
:100C3800FE396306810024005908031D272E9631CA
:100C480000268531362E72302100E0000030E100A8
:100C5800EE30E2000130E3000030E400E5009231BC
:100C68000822853101302200E30063082100EF07E4
:100C780004306F02031CEE2D20001211080023001F
:100C88006A0886008701413F2100EB006B08E800F5
:100C9800E901690824002402031D562E2100680872
:100CA8002400230203185D2E23082100E8006808A9
:100CB800EB0021006B08E800E90168082400A302A2
:100CC800210069082400A43B2100EA016B086A029C
:100CD8000318872E6A08A83E860087010108E800E5
:100CE800240020088600023087002100680881005F
:100CF8000130E80068082400A00701302100E8005E
:100D08006808EA076A2E2400230824040319CB2E56
:100D180022006E08013E2100E800003022006F3DED
:100D28002100E9006808860069088700083081000A
:100D3800A830E8000030E90022006E0886006F083D
:100D48008700423121006808C03F6908C13F23007D
:100D58006A0886008701011BBE2E22006E088600E5
:100D68006F088700483081006E0886006F0887008A
:100D78008117080022006E0886006F088700083077
:100D880081006E0886006F0887008117080022001E
:100D98006E08013E2100E800003022006F3D21006E
:100DA800E900680886006908870008308100A030DB
:100DB800E8000030E90022006E0886006F0887000E
:100DC800423121006808C03F6908C13F22006E080F
:100DD80086006F088700043081006E0886006F085F
:100DE800870081172400250826040319052F0530DC
:100DF800203E860002308700413F8A00403F0A00BB
:100E080087312400A21323006708031D08009731C7
:100E180021270800210012113D009301900198013B
:100E28000E302300A2009930A100A3010430230250
:100E380003182F2F2108860022088700810101301E
:100E4800A1070030A23D0130A0002008A30704300C
:100E58002302031C1E2F16303D0091009F3097007F
:100E68007B3092002300A401143024020318552F6C
:100E78002408A0000130A035FF3E031D3F2F203578
:100E8800203E860087010030C03F0030C13FC23F8E
:100E9800C33F0130A0002008A40714302402031C1B
:100EA8003C2F3D000E1796010E120E13F73023004B
:100EB800A00020083D0090052300D7012400A201CE
:100EC800A301A4013D0090195A2F01302300A0006E
:100ED80020082400D60001302300A00020082400A8
:100EE800D500D401D301DA012300A401053024027E
:100EF8000318A22F2435CB3E86000130870000302E
:100F0800C03FC13F2435AA3E86000230870000302A
:100F1800C03FC13F2408B93E8600023087008101E6
:100F28002408B43E86000230870081010130A00009
:100F38002008A40705302402031C7E2F2830CB008C
:100F48000030CC0016303D00980000302000A3008F
:100F5800A030A2000830A10004302300A00020081F
:100F68002000A000A0172300EF0100302500C900D1
:100F78000030C8000030C7000030C6002400D2018D
:100F88002300EB01080000302500E7000030E600F0
:100F98004B30E5000030E400E801E9010830FD00CD
:100FA8007D08EA002300E3011A30FD007D08F70000
:100FB80003309031F12087311E30FD007D08F700A5
:100FC80004309031F1208731F0012030F1000130F8
:100FD800F2004030FD007D08F30004308A318B2296
:100FE80071082400B4007008B300B101B2012300F5
:040FF800E20108000A
:101004002300A401A501201C0B282208A4072308FF
:10101400A53D0130A235A30D890B0C280130A13662
:10102400A00C890B112820082104031D052825087C
:10103400A1002408A00008000830F0007008F200A5
:1010440000302300590208300319580203183B28C2
:101054005808F0007008F2006908031D3428E901FB
:10106400E90A3B286903031D3B280230F00070089D
:10107400E9007208F000F1017008D8027108D93B48
:101084004B08013EF00000304C3DF1007008860032
:101094007108870072088100A830F00070082400ED
:1010A400DC002300571C70288D2823005508840079
:1010B400560885000008F00024005C0886008701BB
:1010C4007008810001302300D5070030D63D01307F
:1010D400F00070082400DC070130F20272080319E2
:1010E4000800572823005508840056088500000886
:1010F400F00024005C08860087017008810001303C
:101104002300D5070030D63D0130F00070082400DC
:10111400DC070130F2027208031908007428203039
:1011240023006B02031C08003D008E1808002400F5
:101134004808031DB92840302100E1006108FB0084
:10114400A0309331A62388312100E20062082400F4
:10115400CA004A080319B428C801C80AC9012200F0
:101164008E14B92823009E1CB92822008E10240056
:1011740048080319D42823009E1CD42824004908B5
:10118400A03E86000530870001089E31B6268831CE
:1011940001302100E10061082400C90749084A061A
:1011A4000319C8012000911EF5283F3023005F0277
:1011B4000318F5289F311F2788312100E1002300FF
:1011C4005F08203E8600043087002100610881000A
:1011D4000130E10061082300DF075F08203E86003C
:1011E40004308700810123006208031D07295F087A
:1011F400031907295F082100E1006108F00020308D
:101204009F31432788312300DF018D3147250800B2
:10121400803021002006031D0800C030F000700853
:101224002300D7007C294D302300D5009930D60007
:101234001230D8000030D900080021002208031D14
:1012440052292208F000F101F035F10D7B307007CE
:1012540084009930713D8500003F2300D500013F93
:10126400D6005608F1005508F000023070078400DB
:1012740071080318710A85000008F2007208D8008A
:101284005608F1005508F000033070078400710817
:101294000318710A85000008F2007208D9000800DA
:1012A4002300D70108000530210022020318762903
:1012B4002208F000F101F035F10D6C307007840064
:1012C4009930713D8500003F2300D500013FD600D1
:1012D40055088400560885000008F000F1017008E4
:1012E400D8007108D90008002300D70108002300A2
:1012F400D701080021002308013A03191529033AEC
:1013040003191F29013A03195529792908002300D3
:101314004B0886004C0887000030011B0130210077
:10132400EA00043023004B06CB0000304C06CC000E
:1013340008306B06031DAE29210022087F393D00C9
:10134400960016080319A8291030A9290430210091
:10135400E80068082300EB006803031DF329A830A4
:101364002100E8000030E90023004B0886004C0807
:101374008700423121006808C03F6908C13F8831B5
:101384001E208931023023006906031DD5294B082C
:1013940086004C088700043081004B0886004C0806
:1013A40087008117080021006A08031DE62923002D
:1013B4004B0886004C088700483081004B088600A3
:1013C4004C0887008117080023004B0886004C084E
:1013D4008700083081004B0886004C08870081177D
:1013E40008002400A21F062A250826040319042A3B
:1013F4000530203E860002308700413F8A00403F8E
:101404000A008A312400A2132300E8010800230003
:10141400B601AF1F1A2AAC09AD09AE09AF09AC0A6F
:101424000319AD0A0319AE0A0319AF0AB601B60AC5
:10143400B31F2B2AB009B109B209B309B00A0319C1
:10144400B10A0319B20A0319B30A0130B40034080B
:10145400B6060030BA000030B9000030B8000030E1
:10146400B7002F082E042D042C040319742AB50187
:10147400B50AAF1B492A0130AC35AD0DAE0DAF0D29
:10148400890B3E2A0130B4003408B5073B2A0130E9
:10149400B735B80DB90DBA0D890B4A2A2F08330296
:1014A400031D5E2A2E083202031D5E2A2D08310216
:1014B400031D5E2A2C083002031C692A2C08B00282
:1014C4002D08B13B2E08B23B2F08B33B3714013033
:1014D400AF36AE0CAD0CAC0C890B6A2A0130B502E8
:1014E400031D492A36080319822AB709B809B9091C
:1014F400BA09B70A0319B80A0319B90A0319BA0AC7
:101504003A08AF003908AE003808AD003708AC001F
:101514000800F80070080319982A7835CB3E860035
:1015240001308700403FF900413FA02A7835AA3EA8
:10153400860002308700403FF900413FFA007908F5
:101544007A04031DA82AF001F1010800FF30710597
:10155400F4007F307205F500790886007A08870068
:1015640042317408C03F7508C13F7908013EF40058
:1015740000307A3DF500740886007508870073080A
:1015840081004030F400790886007A0887007408E6
:101594008105790886007A08870081157908860014
:1015A4007A088700811770080319F12A7835CB3E31
:1015B400860001308700403FF400413FF5000430CD
:1015C4007406F60000307506F7007835CB3E8600C9
:1015D400013087007608C03F7708C13F092B783572
:1015E400AA3E860002308700403FF400413FF500E8
:1015F40004307406F60000307506F7007835AA3E0C
:101604008600023087007608C03F7708C13F7A0819
:10161400F1007908F00008002300A800200803194D
:101624001C2B2835CB3E860001308700403FA900A3
:10163400413F242B2835AA3E860002308700403FD4
:10164400A900413FAA0029082A04031D2C2BA0014C
:10165400A1010800FF302105A4007F302205A50068
:10166400290886002A08870042312408C03F25083B
:10167400C13F2908013EA40000302A3DA5002408EA
:10168400860025088700230881004030A40029082B
:1016940086002A08870024088105290886002A086C
:1016A40087008115290886002A08870081172008E9
:1016B4000319752B2835CB3E860001308700403F47
:1016C400A400413FA50004302406A60000302506EE
:1016D400A7002835CB3E8600013087002608C03F8E
:1016E4002708C13F8D2B2835AA3E8600023087008B
:1016F400403FA400413FA50004302406A60000306A
:101704002506A7002835AA3E860002308700260851
:10171400C03F2708C13F2A08A1002908A0000800EB
:101724002300D7170E302100E8009930E700E901C3
:10173400043069020318AF2B670886006808870025
:1017440081010130E7070030E83D0130E60066081A
:10175400E90704306902031C9E2B2030F00000309E
:10176400F1000030F200F3005030F4000030F500D6
:101774009F319D278B313D000E172100EA01053072
:101784006A020318D92B6A08B93E86000230870022
:1017940081016A08B43E860002308700810101306D
:1017A400E6006608EA0705306A02031CC52B6830A8
:1017B400F0000230F1000030F200F3000230F400D7
:1017C4000030F5009F319D278B313D000E132830EA
:1017D4002300CB000030CC0020302100E600660856
:1017E4002300EA006A082200EE00FF39031D0030DE
:1017F400EF0021002208E60066082300EF006F08CE
:10180400031D0B2C10302100E60066082300EB00BA
:10181400080000302100E1000130E000EF30E20078
:101824000130E3000130E4000030E5009231082289
:1018340020302100E60066082300EB0008002300A6
:10184400B3000530A8002808B500B2010430A80090
:101854002808B400B41B08003030A8003308860000
:101864000330870028088100B51BA62C3508A80082
:10187400A901A835A90D3408AA00AB012A08A000C3
:101884002B08A1001230A2000030A30088310220EE
:101894008C3100302300AC009830AD0020082C07B8
:1018A400AE0021082D3DAF002E08280784002F0824
:1018B400293D8500003FB000013FB10027083102F7
:1018C400031D662C260830020318A02CB201B20AAC
:1018D4003508013EA8003308860003308700280835
:1018E40081073508A800A901A835A90D3408AA0064
:1018F400AB012A08A0002B08A1001230A20000307E
:10190400A300883102208C3100302300AC009830D1
:10191400AD0020082C07AE0021082D3DAF002E0895
:10192400280784002F08293D8500003FB000013FAF
:10193400B1003008A6023108A73BA62CFF30A8004E
:101944002808B507B51F382C0830A8002808B500AA
:101954003208A8002808B307FF30A8002808B407F5
:101964002C2C3D000E122300D71BFC2C2400A21F9C
:10197400CA2C0230F50075082300E800240053083F
:10198400031DC62C9531A3252400D501D6010800DA
:1019940022006E08013EF50000306F3DF600750828
:1019A40086007608870008308100A030F5000030FA
:1019B400F6006E0886006F08870042317508C03F44
:1019C4007608C13F6E0886006F0887000C308100DE
:1019D4006E0886006F088700811723004B08860075
:1019E4004C088700043081004B0886004C088700AF
:1019F400811708002100A01F132D2300E801E80A25
:101A040024005408031D092D9531A3258C3124008D
:101A1400D501D60123006708031D0800973121274B
:101A240008000230F50075082300E80022006E0863
:101A3400013EF50000306F3DF6007508860076081B
:101A4400870008308100A030F5000030F6006E08F1
:101A540086006F08870042317508C03F7608C13F91
:101A64006E0886006F088700043081006E088600C7
:101A74006F08870081172400D501D6012300670869
:101A8400031D08009731212708002400310832047F
:101A94000319522D3108860032088700811B080083
:101AA4000330230062060319E201620803190800E7
:101AB40002306206031D732DF001F00A0030F100BC
:101AC4000030F200F30104308A318B2271082400C3
:101AD400B2007008B1000330FB007B082300E20071
:101AE40008006203031D080041306102031C7C2DC1
:101AF40040307D2D6108FB007B08FD007D03FF3A2B
:101B04006107FB007B08E100A030FB007B08240098
:101B1400B5007D08FB007B08FC004F080319A82DC5
:101B2400C12D37088600043087000108FB00350802
:101B3400860087017B0881000130FB007B08B50724
:101B44000130FB007B08B7070130FC027C08031955
:101B5400C42D932D37088600043087000108FB004C
:101B64003508860087017B0881000130FB007B0873
:101B7400B5070130FB007B08B7070130FC027C0885
:101B8400031DAC2D23006108031DD22D40307D06BA
:101B9400031DCE2D0230CF2D0330FB007B08E20065
:101BA400F001F00AA030F1000030F2007D08FB00E3
:101BB4007B08F30004308A318B2271082400B200C0
:101BC4007008B1000800210012113D00930190013A
:101BD40098010E30F2009930F100F30104307302E1
:101BE4000318052E710886007208870081010130F0
:101BF400F1070030F23D0130F0007008F3070430C3
:101C04007302031CF42D16303D0091009F309700A1
:101C14007B309200F4011430740203182A2E7408E5
:101C2400F0000130F035FF3E031D142E7035203EC8
:101C3400860087010030C03F0030C13FC23FC33F30
:101C44000130F0007008F40714307402031C112EE4
:101C54003D000E1796010E120E13F730F0007008B7
:101C640090052300D7012400A201A301A4013D0093
:101C740090192F2E0130F00070082400D600013096
:101C8400F0007008D500D401D301DA01F401053065
:101C940074020318712E7435CB3E86000130870020
:101CA4000030C03FC13F7435AA3E86000230870031
:101CB4000030C03FC13F7408B93E8600023087003F
:101CC40081017408B43E860002308700810101302E
:101CD400F0007008F40705307402031C4D2E283000
:101CE4002300CB000030CC0016303D0098000030BB
:101CF4002000A300A030A2000830A1000430F000AE
:101D04007008A000A0172300EF0100302500C900CF
:101D14000030C8000030C7000030C6002400D201E3
:101D24002300EB010800240039083A040319A02E0B
:101D3400390886003A088700811B08000330230015
:101D440065060319E50165080319080002306506F4
:101D5400031DC42EA001A00A0030A1000030A2007F
:101D6400A30102308B310E23230021082400BA0082
:101D7400230020082400B90003302300AB002B0803
:101D8400E50008006503031D080041306402031CDC
:101D9400CD2E4030CE2E6408AB002B08AD002D03B1
:101DA400FF3A6407AB002B08E400A030AB002B081B
:101DB4002400BD0023002D08AB002B08AC00240038
:101DC40051080319012F212F24003F0886004008E1
:101DD400870001082300AB0024003D08860087012A
:101DE40023002B0881000130AB002B082400BD0721
:101DF4000130BF070030C03D01302300AC02230096
:101E04002C080319252FE62E24003F0886004008DD
:101E1400870001082300AB0024003D0886008701E9
:101E240023002B0881000130AB002B082400BD07E0
:101E34000130BF070030C03D01302300AC02230055
:101E44002C08031D062F6408031D322F40302D0675
:101E5400031D2E2F02302F2F0330AB002B08E5007B
:101E6400A001A00AA030A1000030A2002D08AB0000
:101E74002B08A30002308B310E23230021082400F9
:101E8400BA00230020082400B900080022008C16A0
:101E94002300BE1B592F3E08031D992F3D08031D27
:101EA400992F95303B0211303C3B0318992F003099
:101EB400AF000030AE001330AD008830AC005E30AF
:101EC4003B07A00001303C3DA10000303D3DA20095
:101ED40000303E3DA3000030A7000030A6000030D3
:101EE400A500BC30A4009131A1218F312300230827
:101EF400B3002208B2002108B1002008B0008A31E2
:101F040009228F3123002C08BF003F082400CD0094
:101F140000302300A000A1009F31CE27D0302C0038
:101F24009600043022009D002400CB010800230009
:101F3400BE1BA82F3E08031DBC2F3D08031DBC2F4C
:101F4400F3303B0212303C3B0318BC2F2400CD017C
:101F5400CD0A00302300A000A1009F31CE27C0305D
:101F64002C00960022009D012400CB01CB0A220004
:101F74008C12080023003E08AF003D08AE003C0868
:101F8400AD003B08AC000E303B07A000ED303C3DFB
:101F9400A100FF303D3DA200FF303E3DA3000030D4
:101FA400A7000030A6000030A500BC30A400913189
:101FB400A1218F3123002308B3002208B200210895
:101FC400B1002008B0008A3109228F3123002C0887
:101FD400023EBF003F082400CD0000302300A000D3
:101FE400A1009F31CE27C0302C00960022009D0115
:101FF4002400CB01CB0A22008C12080009340234DD
:102004008D3400340434013400348034FA34083418
:102014000B340034023402340234013403340934FE
:1020240004340034003401340234023401340334FF
:102034000534243400341034013404342434023498
:102044000234053424340634003401340534243491
:102054000134003401340734053481340334083442
:1020640000340234093404340134003402340A34B0
:102074000034003403340734053402340234403469
:1020840000340034073405348234023440340034DC
:10209400003408340B340234023402340234013480
:1020A4000434093404340234003401340234023474
:1020B4000134043405342434003410340134043439
:1020C4002434023402340534243406340234033410
:1020D40005342434013400340334073405348334A0
:1020E400033408340034023409340434033400342F
:1020F40002340A340034003404340734053404341C
:102104000234403400340034073405348434023457
:06211400403400340034E9
:10211C00F1007108F000F00DF00D21001D087006A3
:10212C00833970069D001D1408009F316F27903174
:10213C009E31F92690319E31AE2690319E31AA26E1
:10214C0090319E31C12690319E31EF2690319E31D7
:10215C00DD2690319F312F2790319F3104270800C5
:10216C003D001215EF302100E60066083D00900599
:10217C008E142400DA01DA0AD20175302100E00055
:10218C000030E1000030E2000030E3000030E400F9
:10219C00E50092310822080090319B2090319E314D
:1021AC00A42690318B170B179E31A12690318731C5
:1021BC000E2790316A302300CA004A08C0006430F0
:1021CC008231EC22903193310A23903181314A21B2
:1021DC0090316400E928FC00771DF928F0017C0897
:1021EC00923181229031F71C0029F001F00A7C0811
:1021FC00923181227C08983EF800F9010E30F93DAD
:10220C007808FA007908FB007A0886007B088700BA
:10221C007708810008002400DA0174302100E00006
:10222C000030E1000030E2000030E3000030E40058
:10223C00E5009231082291313D008E101211101DD3
:10224C002E29FB302100E60066083D00900525296B
:10225C002400D20108002400E1010830F0007008CD
:10226C00E300E2010030E0000030DF002530DE004A
:10227C008030DD00200011109E31D4269131F10107
:10228C0040307102031808007108A03E860004302B
:10229C00870081010130F0007008F10746293D00EC
:1022AC00181C752923006A088600870180300106F6
:1022BC00031D73294B0886004C08870084300106E7
:1022CC00031D73290C30F0006A0886008701700822
:1022DC0081006A088600870181173D001810DF30E5
:1022EC00F0007008900508002500E8010830F000A7
:1022FC007008EA00E9010030E7000030E600253004
:10230C00E5008030E400F1014030710203189C2993
:10231C007108203E86000430870081010130F000F6
:10232C007008F10740307102031C8E292300DF0175
:10233C002400CA01080000302300AB000030AA00C2
:10234C000030A9000030A800201CB4292408A807DC
:10235C002508A93D2608AA3D2708AB3D0130A43528
:10236C00A50DA60DA70D890BB5290130A336A20C1E
:10237C00A10CA00C890BBC292308220421042004E5
:10238C00031DAA292B08A3002A08A2002908A100D2
:10239C002808A000080000302400E0000030DF0016
:1023AC004B30DE000030DD00E101E2010830FD00C1
:1023BC007D08E3002300E6011A30FD007D08F700DC
:1023CC0001309031F12091311E30FD007D08F70075
:1023DC0002309031F1209131F0012030F1000130C8
:1023EC00F2004030FD007D08F30002308A318B2270
:1023FC0071082400BC007008BB00B901BA012300AD
:10240C00E50108001B2A9131D12192318731C72770
:10241C00923191317A2192319131312108009631EA
:10242C005D2692319631BD26080021006108003AE4
:10243C000319242A7F3A03193E2A432A6008013AD9
:10244C000319092A033A0319432A013A0319152AD5
:10245C00063A0319432A773A0319432A013A031916
:10246C00432A073A0319432A013A0319432A432AF8
:10247C006008FF3A0319432A432A0800023023005C
:10248C006806031D4C2A8631432608002300E80108
:10249C0024005808031D7E2A22006E08013E2100EC
:1024AC00EC00003022006F3D2100ED006C0886002E
:1024BC006D08870008308100A030EC000030ED0082
:1024CC0022006E0886006F088700423121006C08DC
:1024DC00C03F6D08C13F22006E0886006F08870060
:1024EC000C3081006E0886006F0887008117080089
:1024FC002400D8010800F5002030F1007108F60026
:10250C007008F1000130F135890B892A7508F20049
:10251C000130F235FF3E031D8F2A72357107F3002F
:10252C000130F335FF3E031D972A7335F400740810
:10253C00F60776088600870181137008031DB02A00
:10254C007535AA3E8600023087007608C03F003001
:10255C00C13FB92A7535CB3E86000130870076081D
:10256C00C03F0030C13F7608860087010113760812
:10257C00043E860087010117080025004D08E7007E
:10258C004C08E6004B08E5004A08E4006708F30035
:10259C006608F2006508F1006408F0000030F700EE
:1025AC00B730F6001B30F5000030F40093315423A3
:1025BC009231FF3070072100E400FF30713DE500DF
:1025CC00FF30723DE600FF30733DE7006408E00029
:1025DC00E101600823009B002100610823009C009E
:1025EC0021006408E0006508E1006608E200670865
:1025FC00E3000830E336E20CE10CE00C890B002B15
:10260C00600823009C00080023005A0824002707B8
:10261C002300A0005B082400283D2300A100A13664
:10262C00A00C20082400A700230021082400A800E7
:10263C0028083002031D242B27082F02031C372BDC
:10264C0002304C060319372BBC30230060020318F0
:10265C00342B0130A0002008E00708002400CC0136
:10266C0008002300600803193E2B0130E00208002B
:10267C00653024004602031C4D2BC60122008C162B
:10268C0002302300A00020082400CC0008000130F8
:10269C002300A00020082400C60708000030FC001E
:1026AC000030FB000030FA000030F90073087204AF
:1026BC007104700403199D2BFD01FD0AF31B722B91
:1026CC000130F035F10DF20DF30D890B672B013054
:1026DC00F8007808FD07642B0130F935FA0DFB0D75
:1026EC00FC0D890B732B73087702031D872B720863
:1026FC007602031D872B71087502031D872B70084A
:10270C007402031C922B7008F4027108F53B7208DA
:10271C00F63B7308F73B79140130F336F20CF10CED
:10272C00F00C890B932B0130FD02031D722B7C08DE
:10273C00F3007B08F2007A08F1007908F000080039
:10274C002100E0002300E3012400330834040319C2
:10275C00B52B3308860034088700811BF52B330812
:10276C0086003408870041317B0801020318C72B0F
:10277C00330886003408870041310108FC007C08CE
:10278C00FB002300E3017B0863020318E42B6308BE
:10279C00203E8600013087000108FC006308210000
:1027AC006007FD007D088600053087007C088100ED
:1027BC000130FC007C082300E307C92BF00120301A
:1027CC00F1000130F2004030FC007C08F3000430D2
:1027DC008A318B2271082400B4007008B3002300E6
:1027EC006308080000302300B8000030B700003048
:1027FC00B6000030B5002F082E042D042C0403194C
:10280C00422CB901B90AAF1B172C0130AC35AD0DF8
:10281C00AE0DAF0D890B0C2C0130B4003408B90788
:10282C00092C0130B535B60DB70DB80D890B182C28
:10283C002F083302031D2C2C2E083202031D2C2CC6
:10284C002D083102031D2C2C2C083002031C372CB4
:10285C002C08B0022D08B13B2E08B23B2F08B33B1D
:10286C0035140130AF36AE0CAD0CAC0C890B382CDA
:10287C000130B902031D172C3808AF003708AE0021
:10288C003608AD003508AC0008002300AE00E601A8
:10289C0024003B083C040319592C3B0886003C08D7
:1028AC008700811B9C2C3B0886003C08870041312B
:1028BC0023002B08010203186E2C24003B08860011
:1028CC003C088700413101082300AC002C08AB0008
:1028DC00E6012B0866020318882C6608203E860049
:1028EC00013087000108AC0066082E07AD002D08EA
:1028FC008600053087002C0881000130AC002C08C4
:10290C00E6076F2CA0012030A1000130A20040305E
:10291C00AC002C08A30002308B310E2323002108BD
:10292C002400BC00230020082400BB002300660800
:10293C0008002100A801A901DB2C2300D7172400D3
:10294C005B03031DE72C2100A814E72C2300D717E9
:10295C00E72C2300D7172100A41BBF2C24080F3908
:10296C000907AA3E860002308700403FF100413F34
:10297C00C92C24080F390907CB3E8600013087008B
:10298C00403FF100413FF200710886007208870059
:10299C00811FE72C7108860072088700011DE72C47
:1029AC000130F0007008A800E72C20081F39003A0D
:1029BC000319A32C013A0319AC2C033A0319AF2CBD
:1029CC00E72C2300D71F0800A830D5000030D60014
:1029DC0057140230F0007008D80008002300E901F9
:1029EC00E7012400D401D301D8012300E8017F3092
:1029FC002100EE0023004B0886004C0887002100C4
:102A0C006E088105043023004B06CB0000304C06C9
:102A1C00CC007F302100EE0023004B0886004C08D0
:102A2C00870021006E088105043023004B06CB0083
:102A3C0000304C06CC007F302100EE0022006E08E6
:102A4C0086006F08870021006E0881052300D701DE
:102A5C00D801D9012400A201A301A4019531492573
:102A6C00943100302100E1000330E0000030E2003E
:102A7C000030E3000030E400E5009231082294318C
:102A8C008C31B32408002100200E890C0339003A44
:102A9C00031D0800972D2300D71708302100ED00E7
:102AAC006D082300EB00080089310A2108008B31E6
:102ABC0092230800EF302300D5000130D6005714C4
:102ACC00D801D80AD717080094319F240800843104
:102ADC002124080021002408683E2300D500023080
:102AEC00D6005714D801D80AD71708002300D717D7
:102AFC0021002208ED002408683E86000230870081
:102B0C006D08810008000030E1000230E000003068
:102B1C00E2000030E3000030E400E50092310822CE
:102B2C0008002100210884000D300402031808005D
:102B3C00993104351D3E820008002400D401D301D4
:102B4C00023023006806031DD12D22006E08013EC1
:102B5C00F30000306F3DF4007308860074088700A2
:102B6C0008308100A830F3000030F4006E088600B5
:102B7C006F08870042317308C03F7408C13F6E086C
:102B8C0086006F088700483081006E0886006F0849
:102B9C008700811708002300590821002702031D14
:102BAC00DB2D23005808210026020318E42D2708EA
:102BBC002300D900210026082300D80088311E20CC
:102BCC00A830F3000030F40023004B0886004C08BA
:102BDC00870042317308C03F7408C13F4B08860020
:102BEC004C088700483081004B0886004C08870051
:102BFC00811708002D302200E00060082400D70067
:102C0C0023006E08FD39031D512E6E363F3922000C
:102C1C00E0000130E035FF3E031D102E6035203EF4
:102C2C00E10061082300EA006A082200EE00FF3987
:102C3C00031D0030EF0004306E06EE0000306F060E
:102C4C00EF0023006A0886008701010C890C0F39FC
:102C5C000D3A031D4E2EA0308600870123006A0812
:102C6C00023E84008501003F2200E000013FE100AC
:102C7C0060088400610885000830E20062080319CE
:102C8C004B2E12001E00E20B472E9431F424080048
:102C9C00923144220800FD3023006E052200E00032
:102CAC0004306006031D08008931892108002100C9
:102CBC0020081F39013A031D0800200E890C033926
:102CCC00013A031D080024080319AA2E2403031D2E
:102CDC000800AA2EDC302300D5000230D6000830C4
:102CEC00D8000030D9005714D7170800DC30230067
:102CFC00D5000230D600D717080021002708240081
:102D0C00A400210026082400A3005D30F000700808
:102D1C00A000A501A601A21708005D302300D50074
:102D2C000230D6000730D8000030D900C130F00096
:102D3C007008D700080021002208F0007008240059
:102D4C00D0002300D717080021002108003A0319EE
:102D5C00702E013A03197C2E213A0319832E013A65
:102D6C000319932E033A0319A12EBC2E080021003F
:102D7C0020081F39013A031D0800200E890C033965
:102D8C00013A031D08000230240603190E2F0330EC
:102D9C002406031D08000E2FD4302300D50002306A
:102DAC00D6000830D8000030D9005714D7170800C7
:102DBC00D4302300D5000230D600D71708002100EC
:102DCC0027082400A400210026082400A300CA30F0
:102DDC00F0007008A000C330A5001230A600A217A6
:102DEC000800E4302300D5000230D6000730D800AC
:102DFC000030D900C130F0007008D7000800210065
:102E0C002208F00070082400CE002300D717080019
:102E1C0021002108003A0319D22E013A0319DE2EA3
:102E2C00213A0319E52E013A0319F72E033A031937
:102E3C00052F202F080024005608031D0800013020
:102E4C00F0007008D6005508031D08000130F00092
:102E5C007008D500023023006806031D472F4B086D
:102E6C0086004C088700413181014B0886004C08D4
:102E7C008700483081004B0886004C08870081177A
:102E8C0008006803031D08002400D8010830F00076
:102E9C0023006A0A8600870170088100A030F000C8
:102EAC000030F1006A08023E860087017008C03FBE
:102EBC007108C13F0430F0006A0886008701700871
:102ECC0081006A088600870181172400D801D80A7E
:102EDC0022006E08013EF00000306F3DF1007008DA
:102EEC0086007108870008308100A030F0000030A7
:102EFC00F1006E0886006F08870042317008C03FF1
:102F0C007108C13F6E0886006F0887008030810011
:102F1C0008002300AD002D08860003308700203008
:102F2C000106031D9E2F0130A8002808AD07912F24
:102F3C002D08860003308700093001060319992FEC
:102F4C00AB01AC01AA012D088600033087002D309F
:102F5C000106031DB62F0130A8002808AA07BE2FB2
:102F6C002D088600033087002B300106031DC22F6D
:102F7C000130A8002808AD072D0886000330870013
:102F8C0001089F3110279731031CEB2F23002C08CD
:102F9C00A1002B08A0000A30A2000030A300883149
:102FAC000220973123002D0886000330870001088A
:102FBC002007A80021080318210AA9002808D03EE0
:102FCC00AB00FF30293DAC00BE2F23002A080319AB
:102FDC00FB2F2B09A8002C09A900A80A0319A90A80
:102FEC002808A6002908A70008002C08A7002B0811
:102FFC00A6000800013400340234003403340034D9
:10300C0004340034053400340634003407340034FE
:10301C0008340034093400340A34003414340034D5
:10302C001E34003428340034323400343C34003440
:10303C0046340034503400345A3400346434003490
:10304C00C83400342C34013490340134F434013459
:10305C0058340234BC340234203403348434033402
:10306C00E8340334D0340734B8340B34A0340F3480
:10307C00883413347034173458341B3440341F34B0
:10308C00283423341034273420344E3430347534FF
:10309C0040349C345034C3346034EA34003400344B
:1030AC0000340034003400343434033443340034FA
:1030BC006434003463340034503400346F340034DE
:1030CC0072340034743400342034003466340034E8
:1030DC006F340034723400342034003470340034D3
:1030EC006F34003477340034653400347234003477
:1030FC0020340034633400346F3400346E340034C4
:10310C0074340034723400346F3400346C34003452
:10311C003234033443340034443400344334003404
:10312C003C3400342D3400343E34003455340034F7
:10313C004134003452340034543400342F340034CD
:10314C0052340034533400343434003438340034C2
:10315C0035340034203400346134003464340034A9
:10316C006134003470340034743400346534003409
:10317C007234003432340334433400344434003475
:10318C00433400345F340034503400346F34003432
:10319C007734003465340034723400342B3400340A
:1031AC004334003444340034433400345F3400344A
:1031BC005534003441340034523400345434003427
:1031CC002F3400345234003453340034343400344B
:1031DC0038340034353400340434033409340434C2
:1031EC00453461347334793456346F346C347434FC
:1031FC00733420340934553428346D34563429341E
:10320C003D3420342034203420342034203409340C
:10321C002034493428346D34413429343D3420343D
:10322C0020342034203420340D340A3400349531C9
:10323C006A2D95316D2D9531A22D95316D2D9531D0
:10324C00A22D9531512D95315A2D9531892D9531D0
:10325C00602D95315D2D9531702D95317C2D9531ED
:10326C00A22D1634033445340034613400347334E5
:10327C0000347934003420340034563400346F3444
:10328C0000346C340034743400347334003412342D
:10329C00013400340234EF34023401340834D834AD
:1032AC0004340B340034013400340134023400345F
:1032BC000134573472346F346E34673420346334D1
:1032CC006D34643421340D340A340034F2349834BF
:1032DC0037349934C03498345A3498348E34983402
:1032EC004F344B340D340A340034003490340034F1
:0232FC0090340C
:103D3C0021009D14080021009D1408002000181477
:103D4C00080020001C150800833022009700080092
:103D5C000630210097000800F4340134003400349C
:103D6C00F000700823009A00080021001C08F100E4
:103D7C001B08F0000800D0302C009600950194012F
:103D8C000800640080010131890BC82E0034031037
:103D9C0021009D1C03140030093D080023005D0820
:103DAC002000970023005C082000960008002000EB
:103DBC009C012F309B009A0191109E31A726080080
:103DCC0023005D082000970023005C08200096006B
:103DDC000800193021009D00E3309E009F019B01DB
:103DEC009C0111170800FC302100990098019030BB
:103DFC0027009B0021001A1B0800002F48302300CD
:103E0C009F0090309D0026309E00E1309B000430D6
:103E1C009C0008002300A100A0013A3021020318E5
:103E2C001D2F30302102031C1D2FA001A00A200CD5
:103E3C00080023009D1C292F1D121908F000700882
:103E4C00F1001D162D2F1908F0007008F1007108F3
:103E5C000800F430200098009901F4309700A63047
:103E6C00960017082300DD00200016082300DC0054
:103E7C00200011109E31A4260800F20023006208D5
:103E8C00031D08007208F10071082400B7007008C7
:103E9C00F10071082300E1002400CF01CF0A2300B8
:103EAC00E201E20A08007108F3007008F200F33630
:103EBC00F20CF336F20C72082C00950070080339E2
:103ECC00F2000530F235FF3E031D682F7235940069
:103EDC000800203022008C008E01103021008C0054
:103EEC0024308E000F3023008E0010308C000830F0
:103EFC0024008C0021009513043022009D00080042
:103F0C0023006508031D080021082400C0002300BD
:103F1C0020082400BF0023002208A3002308E4008B
:103F2C002400D101D10A2300E501E50A080071083B
:103F3C00F7007008F6000130F4020030F53B740A0B
:103F4C000319750A0319080076088600770887009C
:103F5C00720881000130F6070030F73DA12F0130C7
:103F6C002500C6070030C73D0030C83D0030C93DB4
:103F7C0024005A08031D08000130F0007008D20715
:103F8C005208031D0800FF30F0007008D200080032
:103F9C0023002108A3002008A200A336A20CA336FC
:103FAC00A20C22082C009500230020080339A20043
:103FBC000530A235FF3E031DDF2F22352C00940067
:103FCC00080023002108A7002008A6000130A40245
:103FDC000030A53B240A0319250A031908002608FA
:103FEC00860027088700220881000130A6070030D0
:043FFC00A73DEC2FC2
:020000040001F9
:04000E007CCFCFDFF5
:00000001FF
